{
  "contractName": "MedicalRecords",
  "abi": [
    {
      "anonymous": false,
      "inputs": [
        {
          "indexed": true,
          "internalType": "address",
          "name": "patient",
          "type": "address"
        },
        {
          "indexed": true,
          "internalType": "address",
          "name": "doctor",
          "type": "address"
        }
      ],
      "name": "AccessGranted",
      "type": "event"
    },
    {
      "anonymous": false,
      "inputs": [
        {
          "indexed": true,
          "internalType": "address",
          "name": "patient",
          "type": "address"
        },
        {
          "indexed": true,
          "internalType": "address",
          "name": "doctor",
          "type": "address"
        }
      ],
      "name": "AccessRevoked",
      "type": "event"
    },
    {
      "anonymous": false,
      "inputs": [
        {
          "indexed": false,
          "internalType": "string",
          "name": "msg",
          "type": "string"
        }
      ],
      "name": "LogMessage",
      "type": "event"
    },
    {
      "anonymous": false,
      "inputs": [
        {
          "indexed": false,
          "internalType": "address",
          "name": "patient",
          "type": "address"
        }
      ],
      "name": "LogValue",
      "type": "event"
    },
    {
      "anonymous": false,
      "inputs": [
        {
          "indexed": false,
          "internalType": "address",
          "name": "patient",
          "type": "address"
        },
        {
          "indexed": false,
          "internalType": "string",
          "name": "description",
          "type": "string"
        },
        {
          "indexed": false,
          "internalType": "address",
          "name": "doctor",
          "type": "address"
        }
      ],
      "name": "RecordAdded",
      "type": "event"
    },
    {
      "inputs": [
        {
          "internalType": "address",
          "name": "patient",
          "type": "address"
        },
        {
          "internalType": "string",
          "name": "description",
          "type": "string"
        },
        {
          "internalType": "string",
          "name": "ipfsHash",
          "type": "string"
        }
      ],
      "name": "addRecord",
      "outputs": [],
      "stateMutability": "nonpayable",
      "type": "function"
    },
    {
      "inputs": [
        {
          "internalType": "address",
          "name": "patient",
          "type": "address"
        }
      ],
      "name": "getRecords",
      "outputs": [
        {
          "components": [
            {
              "internalType": "string",
              "name": "description",
              "type": "string"
            },
            {
              "internalType": "string",
              "name": "ipfsHash",
              "type": "string"
            },
            {
              "internalType": "address",
              "name": "doctor",
              "type": "address"
            },
            {
              "internalType": "uint256",
              "name": "timestamp",
              "type": "uint256"
            }
          ],
          "internalType": "struct MedicalRecords.Record[]",
          "name": "",
          "type": "tuple[]"
        }
      ],
      "stateMutability": "view",
      "type": "function",
      "constant": true
    },
    {
      "inputs": [
        {
          "internalType": "address",
          "name": "doctor",
          "type": "address"
        }
      ],
      "name": "grantAccess",
      "outputs": [],
      "stateMutability": "nonpayable",
      "type": "function"
    },
    {
      "inputs": [
        {
          "internalType": "address",
          "name": "doctor",
          "type": "address"
        }
      ],
      "name": "revokeAccess",
      "outputs": [],
      "stateMutability": "nonpayable",
      "type": "function"
    },
    {
      "inputs": [
        {
          "internalType": "address",
          "name": "patient",
          "type": "address"
        },
        {
          "internalType": "address",
          "name": "doctor",
          "type": "address"
        }
      ],
      "name": "hasAccess",
      "outputs": [
        {
          "internalType": "bool",
          "name": "",
          "type": "bool"
        }
      ],
      "stateMutability": "view",
      "type": "function",
      "constant": true
    }
  ],
  "bytecode": "0x608060405234801561001057600080fd5b50611150806100206000396000f3fe608060405234801561001057600080fd5b50600436106100575760003560e01c80630ae5e7391461005c5780631709ef071461007857806385e68531146100a8578063a0076e84146100c4578063d47b41d5146100f4575b600080fd5b61007660048036038101906100719190610a76565b610110565b005b610092600480360381019061008d9190610a9f565b61026d565b60405161009f9190610e76565b60405180910390f35b6100c260048036038101906100bd9190610a76565b610301565b005b6100de60048036038101906100d99190610a76565b61045f565b6040516100eb9190610e54565b60405180910390f35b61010e60048036038101906101099190610adb565b61077f565b005b7f96561394bac381230de4649200e8831afcab1f451881bbade9ef209f6dd3048060405161013d90610eb1565b60405180910390a17f390d9f7cb271a4f1007b9fbeeae2d987b55811356150cf63a6f21bf1118a67f9816040516101749190610dfb565b60405180910390a160018060003373ffffffffffffffffffffffffffffffffffffffff1673ffffffffffffffffffffffffffffffffffffffff16815260200190815260200160002060008373ffffffffffffffffffffffffffffffffffffffff1673ffffffffffffffffffffffffffffffffffffffff16815260200190815260200160002060006101000a81548160ff0219169083151502179055508073ffffffffffffffffffffffffffffffffffffffff163373ffffffffffffffffffffffffffffffffffffffff167f9f520b3bfc56d06f7065d10b4683b3f57ac8895d5026cd176dee95ce1454cb8d60405160405180910390a350565b6000600160008473ffffffffffffffffffffffffffffffffffffffff1673ffffffffffffffffffffffffffffffffffffffff16815260200190815260200160002060008373ffffffffffffffffffffffffffffffffffffffff1673ffffffffffffffffffffffffffffffffffffffff16815260200190815260200160002060009054906101000a900460ff16905092915050565b7f96561394bac381230de4649200e8831afcab1f451881bbade9ef209f6dd3048060405161032e90610ef1565b60405180910390a17f390d9f7cb271a4f1007b9fbeeae2d987b55811356150cf63a6f21bf1118a67f9816040516103659190610dfb565b60405180910390a16000600160003373ffffffffffffffffffffffffffffffffffffffff1673ffffffffffffffffffffffffffffffffffffffff16815260200190815260200160002060008373ffffffffffffffffffffffffffffffffffffffff1673ffffffffffffffffffffffffffffffffffffffff16815260200190815260200160002060006101000a81548160ff0219169083151502179055508073ffffffffffffffffffffffffffffffffffffffff163373ffffffffffffffffffffffffffffffffffffffff167f825c8be24eb0df19500f63e86c29e7d0d951e73056b889b891d85e40938d9b6e60405160405180910390a350565b60603373ffffffffffffffffffffffffffffffffffffffff168273ffffffffffffffffffffffffffffffffffffffff1614806105215750600160008373ffffffffffffffffffffffffffffffffffffffff1673ffffffffffffffffffffffffffffffffffffffff16815260200190815260200160002060003373ffffffffffffffffffffffffffffffffffffffff1673ffffffffffffffffffffffffffffffffffffffff16815260200190815260200160002060009054906101000a900460ff165b610560576040517f08c379a000000000000000000000000000000000000000000000000000000000815260040161055790610ed1565b60405180910390fd5b6000808373ffffffffffffffffffffffffffffffffffffffff1673ffffffffffffffffffffffffffffffffffffffff168152602001908152602001600020805480602002602001604051908101604052809291908181526020016000905b8282101561077457838290600052602060002090600402016040518060800160405290816000820180546105f190611062565b80601f016020809104026020016040519081016040528092919081815260200182805461061d90611062565b801561066a5780601f1061063f5761010080835404028352916020019161066a565b820191906000526020600020905b81548152906001019060200180831161064d57829003601f168201915b5050505050815260200160018201805461068390611062565b80601f01602080910402602001604051908101604052809291908181526020018280546106af90611062565b80156106fc5780601f106106d1576101008083540402835291602001916106fc565b820191906000526020600020905b8154815290600101906020018083116106df57829003601f168201915b505050505081526020016002820160009054906101000a900473ffffffffffffffffffffffffffffffffffffffff1673ffffffffffffffffffffffffffffffffffffffff1673ffffffffffffffffffffffffffffffffffffffff168152602001600382015481525050815260200190600101906105be565b505050509050919050565b6000808473ffffffffffffffffffffffffffffffffffffffff1673ffffffffffffffffffffffffffffffffffffffff16815260200190815260200160002060405180608001604052808481526020018381526020013373ffffffffffffffffffffffffffffffffffffffff1681526020014281525090806001815401808255809150506001900390600052602060002090600402016000909190919091506000820151816000019080519060200190610839929190610956565b506020820151816001019080519060200190610856929190610956565b5060408201518160020160006101000a81548173ffffffffffffffffffffffffffffffffffffffff021916908373ffffffffffffffffffffffffffffffffffffffff1602179055506060820151816003015550507f0162e5f82d0f9f6c8f00cc90a44c2fe43acd1f1da0641215282171672daad6fa8383336040516108dd93929190610e16565b60405180910390a17f96561394bac381230de4649200e8831afcab1f451881bbade9ef209f6dd3048060405161091290610e91565b60405180910390a17f390d9f7cb271a4f1007b9fbeeae2d987b55811356150cf63a6f21bf1118a67f9836040516109499190610dfb565b60405180910390a1505050565b82805461096290611062565b90600052602060002090601f01602090048101928261098457600085556109cb565b82601f1061099d57805160ff19168380011785556109cb565b828001600101855582156109cb579182015b828111156109ca5782518255916020019190600101906109af565b5b5090506109d891906109dc565b5090565b5b808211156109f55760008160009055506001016109dd565b5090565b6000610a0c610a0784610f42565b610f11565b905082815260208101848484011115610a2457600080fd5b610a2f848285611020565b509392505050565b600081359050610a4681611103565b92915050565b600082601f830112610a5d57600080fd5b8135610a6d8482602086016109f9565b91505092915050565b600060208284031215610a8857600080fd5b6000610a9684828501610a37565b91505092915050565b60008060408385031215610ab257600080fd5b6000610ac085828601610a37565b9250506020610ad185828601610a37565b9150509250929050565b600080600060608486031215610af057600080fd5b6000610afe86828701610a37565b935050602084013567ffffffffffffffff811115610b1b57600080fd5b610b2786828701610a4c565b925050604084013567ffffffffffffffff811115610b4457600080fd5b610b5086828701610a4c565b9150509250925092565b6000610b668383610d82565b905092915050565b610b7781610fd8565b82525050565b610b8681610fd8565b82525050565b6000610b9782610f82565b610ba18185610fa5565b935083602082028501610bb385610f72565b8060005b85811015610bef5784840389528151610bd08582610b5a565b9450610bdb83610f98565b925060208a01995050600181019050610bb7565b50829750879550505050505092915050565b610c0a81610fea565b82525050565b6000610c1b82610f8d565b610c258185610fb6565b9350610c3581856020860161102f565b610c3e816110f2565b840191505092915050565b6000610c5482610f8d565b610c5e8185610fc7565b9350610c6e81856020860161102f565b610c77816110f2565b840191505092915050565b6000610c8f601783610fc7565b91507f416464696e67206d65646963616c207265636f726473210000000000000000006000830152602082019050919050565b6000610ccf601783610fc7565b91507f4772616e742061636365737320746f20646f63746f72210000000000000000006000830152602082019050919050565b6000610d0f600d83610fc7565b91507f4163636573732064656e696564000000000000000000000000000000000000006000830152602082019050919050565b6000610d4f601883610fc7565b91507f5265766f6b652061636365737320746f20646f63746f722100000000000000006000830152602082019050919050565b60006080830160008301518482036000860152610d9f8282610c10565b91505060208301518482036020860152610db98282610c10565b9150506040830151610dce6040860182610b6e565b506060830151610de16060860182610dec565b508091505092915050565b610df581611016565b82525050565b6000602082019050610e106000830184610b7d565b92915050565b6000606082019050610e2b6000830186610b7d565b8181036020830152610e3d8185610c49565b9050610e4c6040830184610b7d565b949350505050565b60006020820190508181036000830152610e6e8184610b8c565b905092915050565b6000602082019050610e8b6000830184610c01565b92915050565b60006020820190508181036000830152610eaa81610c82565b9050919050565b60006020820190508181036000830152610eca81610cc2565b9050919050565b60006020820190508181036000830152610eea81610d02565b9050919050565b60006020820190508181036000830152610f0a81610d42565b9050919050565b6000604051905081810181811067ffffffffffffffff82111715610f3857610f376110c3565b5b8060405250919050565b600067ffffffffffffffff821115610f5d57610f5c6110c3565b5b601f19601f8301169050602081019050919050565b6000819050602082019050919050565b600081519050919050565b600081519050919050565b6000602082019050919050565b600082825260208201905092915050565b600082825260208201905092915050565b600082825260208201905092915050565b6000610fe382610ff6565b9050919050565b60008115159050919050565b600073ffffffffffffffffffffffffffffffffffffffff82169050919050565b6000819050919050565b82818337600083830152505050565b60005b8381101561104d578082015181840152602081019050611032565b8381111561105c576000848401525b50505050565b6000600282049050600182168061107a57607f821691505b6020821081141561108e5761108d611094565b5b50919050565b7f4e487b7100000000000000000000000000000000000000000000000000000000600052602260045260246000fd5b7f4e487b7100000000000000000000000000000000000000000000000000000000600052604160045260246000fd5b6000601f19601f8301169050919050565b61110c81610fd8565b811461111757600080fd5b5056fea2646970667358221220f97cf94a1820245e8b18dcb51311ed46db7d8615d60792412d628578644f179f64736f6c63430008000033",
  "immutableReferences": {},
  "source": "// SPDX-License-Identifier: MIT\r\npragma solidity ^0.8.0;\r\n\r\ncontract MedicalRecords {\r\n    struct Record {\r\n        string description;\r\n        string ipfsHash; // IPFS hash for storing large files like images\r\n        address doctor;\r\n        uint256 timestamp;\r\n    }\r\n\r\n    mapping(address => Record[]) private records; // Patient's medical records\r\n    mapping(address => mapping(address => bool)) private accessControl; // Patient's consent for doctors\r\n\r\n\r\n    event RecordAdded(address patient, string description, address doctor);\r\n    event AccessGranted(address indexed patient, address indexed doctor);\r\n    event AccessRevoked(address indexed patient, address indexed doctor);\r\n\r\n    event LogMessage(string msg);\r\n    event LogValue(address patient);\r\n\r\n\r\n\r\n    // Function to add a new medical record\r\n    function addRecord(address patient, string memory description, string memory ipfsHash) public {\r\n        records[patient].push(Record(description, ipfsHash, msg.sender, block.timestamp));\r\n        emit RecordAdded(patient, description, msg.sender);\r\n        emit LogMessage(\"Adding medical records!\");\r\n        emit LogValue(patient);\r\n    }\r\n\r\n    //Function to get all records of a patient\r\n    // function getRecords(address patient) public view returns (Record[] memory) {\r\n    //     return records[patient];\r\n    // }\r\n\r\n\r\n      // Function to get all records of a patient\r\n    function getRecords(address patient) public view returns (Record[] memory) {\r\n        require(patient == msg.sender || accessControl[patient][msg.sender], \"Access denied\");\r\n        return records[patient];\r\n    }\r\n\r\n    // Function to grant access to a doctor\r\n    function grantAccess(address doctor) public {\r\n        emit LogMessage(\"Grant access to doctor!\");\r\n        emit LogValue(doctor);\r\n    \r\n        accessControl[msg.sender][doctor] = true;\r\n        emit AccessGranted(msg.sender, doctor);\r\n    }\r\n\r\n    // Function to revoke access from a doctor\r\n    function revokeAccess(address doctor) public {\r\n        emit LogMessage(\"Revoke access to doctor!\");\r\n        emit LogValue(doctor);\r\n\r\n        accessControl[msg.sender][doctor] = false;\r\n        emit AccessRevoked(msg.sender, doctor);\r\n    }\r\n\r\n    // Function to check if a doctor has access to a patient's records\r\n    function hasAccess(address patient, address doctor) public view returns (bool) {\r\n        return accessControl[patient][doctor];\r\n    }\r\n}\r\n",
  "sourcePath": "D:\\blockchain\\blockchain-medical-records\\contracts\\MedicalRecords.sol",
  "compiler": {
    "name": "solc",
    "version": "0.8.0+commit.c7dfd78e.Emscripten.clang"
  },
  "schemaVersion": "3.4.16",
  "updatedAt": "2024-12-13T05:44:57.698Z",
  "networkType": "ethereum",
  "devdoc": {
    "kind": "dev",
    "methods": {},
    "version": 1
  },
  "userdoc": {
    "kind": "user",
    "methods": {},
    "version": 1
  }
}