{
  "contractName": "MedicalRecords",
  "abi": [
    {
      "anonymous": false,
      "inputs": [
        {
          "indexed": true,
          "internalType": "address",
          "name": "patient",
          "type": "address"
        },
        {
          "indexed": true,
          "internalType": "address",
          "name": "doctor",
          "type": "address"
        }
      ],
      "name": "AccessGranted",
      "type": "event"
    },
    {
      "anonymous": false,
      "inputs": [
        {
          "indexed": true,
          "internalType": "address",
          "name": "patient",
          "type": "address"
        },
        {
          "indexed": true,
          "internalType": "address",
          "name": "doctor",
          "type": "address"
        }
      ],
      "name": "AccessRevoked",
      "type": "event"
    },
    {
      "anonymous": false,
      "inputs": [
        {
          "indexed": false,
          "internalType": "address",
          "name": "patient",
          "type": "address"
        },
        {
          "indexed": false,
          "internalType": "string",
          "name": "description",
          "type": "string"
        },
        {
          "indexed": false,
          "internalType": "address",
          "name": "doctor",
          "type": "address"
        }
      ],
      "name": "RecordAdded",
      "type": "event"
    },
    {
      "inputs": [
        {
          "internalType": "address",
          "name": "patient",
          "type": "address"
        },
        {
          "internalType": "string",
          "name": "description",
          "type": "string"
        },
        {
          "internalType": "string",
          "name": "ipfsHash",
          "type": "string"
        }
      ],
      "name": "addRecord",
      "outputs": [],
      "stateMutability": "nonpayable",
      "type": "function"
    },
    {
      "inputs": [
        {
          "internalType": "address",
          "name": "patient",
          "type": "address"
        }
      ],
      "name": "getRecords",
      "outputs": [
        {
          "components": [
            {
              "internalType": "string",
              "name": "description",
              "type": "string"
            },
            {
              "internalType": "string",
              "name": "ipfsHash",
              "type": "string"
            },
            {
              "internalType": "address",
              "name": "doctor",
              "type": "address"
            },
            {
              "internalType": "uint256",
              "name": "timestamp",
              "type": "uint256"
            }
          ],
          "internalType": "struct MedicalRecords.Record[]",
          "name": "",
          "type": "tuple[]"
        }
      ],
      "stateMutability": "view",
      "type": "function",
      "constant": true
    },
    {
      "inputs": [
        {
          "internalType": "address",
          "name": "doctor",
          "type": "address"
        }
      ],
      "name": "grantAccess",
      "outputs": [],
      "stateMutability": "nonpayable",
      "type": "function"
    },
    {
      "inputs": [
        {
          "internalType": "address",
          "name": "doctor",
          "type": "address"
        }
      ],
      "name": "revokeAccess",
      "outputs": [],
      "stateMutability": "nonpayable",
      "type": "function"
    }
  ],
  "bytecode": "0x608060405234801561001057600080fd5b50610c31806100206000396000f3fe608060405234801561001057600080fd5b506004361061004c5760003560e01c80630ae5e7391461005157806385e685311461006d578063a0076e8414610089578063d47b41d5146100b9575b600080fd5b61006b60048036038101906100669190610764565b6100d5565b005b61008760048036038101906100829190610764565b6101c6565b005b6100a3600480360381019061009e9190610764565b6102b8565b6040516100b091906109dc565b60405180910390f35b6100d360048036038101906100ce919061078d565b6104d9565b005b60018060003373ffffffffffffffffffffffffffffffffffffffff1673ffffffffffffffffffffffffffffffffffffffff16815260200190815260200160002060008373ffffffffffffffffffffffffffffffffffffffff1673ffffffffffffffffffffffffffffffffffffffff16815260200190815260200160002060006101000a81548160ff0219169083151502179055508073ffffffffffffffffffffffffffffffffffffffff163373ffffffffffffffffffffffffffffffffffffffff167f9f520b3bfc56d06f7065d10b4683b3f57ac8895d5026cd176dee95ce1454cb8d60405160405180910390a350565b6000600160003373ffffffffffffffffffffffffffffffffffffffff1673ffffffffffffffffffffffffffffffffffffffff16815260200190815260200160002060008373ffffffffffffffffffffffffffffffffffffffff1673ffffffffffffffffffffffffffffffffffffffff16815260200190815260200160002060006101000a81548160ff0219169083151502179055508073ffffffffffffffffffffffffffffffffffffffff163373ffffffffffffffffffffffffffffffffffffffff167f825c8be24eb0df19500f63e86c29e7d0d951e73056b889b891d85e40938d9b6e60405160405180910390a350565b60606000808373ffffffffffffffffffffffffffffffffffffffff1673ffffffffffffffffffffffffffffffffffffffff168152602001908152602001600020805480602002602001604051908101604052809291908181526020016000905b828210156104ce578382906000526020600020906004020160405180608001604052908160008201805461034b90610b43565b80601f016020809104026020016040519081016040528092919081815260200182805461037790610b43565b80156103c45780601f10610399576101008083540402835291602001916103c4565b820191906000526020600020905b8154815290600101906020018083116103a757829003601f168201915b505050505081526020016001820180546103dd90610b43565b80601f016020809104026020016040519081016040528092919081815260200182805461040990610b43565b80156104565780601f1061042b57610100808354040283529160200191610456565b820191906000526020600020905b81548152906001019060200180831161043957829003601f168201915b505050505081526020016002820160009054906101000a900473ffffffffffffffffffffffffffffffffffffffff1673ffffffffffffffffffffffffffffffffffffffff1673ffffffffffffffffffffffffffffffffffffffff16815260200160038201548152505081526020019060010190610318565b505050509050919050565b6000808473ffffffffffffffffffffffffffffffffffffffff1673ffffffffffffffffffffffffffffffffffffffff16815260200190815260200160002060405180608001604052808481526020018381526020013373ffffffffffffffffffffffffffffffffffffffff1681526020014281525090806001815401808255809150506001900390600052602060002090600402016000909190919091506000820151816000019080519060200190610593929190610644565b5060208201518160010190805190602001906105b0929190610644565b5060408201518160020160006101000a81548173ffffffffffffffffffffffffffffffffffffffff021916908373ffffffffffffffffffffffffffffffffffffffff1602179055506060820151816003015550507f0162e5f82d0f9f6c8f00cc90a44c2fe43acd1f1da0641215282171672daad6fa8383336040516106379392919061099e565b60405180910390a1505050565b82805461065090610b43565b90600052602060002090601f01602090048101928261067257600085556106b9565b82601f1061068b57805160ff19168380011785556106b9565b828001600101855582156106b9579182015b828111156106b857825182559160200191906001019061069d565b5b5090506106c691906106ca565b5090565b5b808211156106e35760008160009055506001016106cb565b5090565b60006106fa6106f584610a2f565b6109fe565b90508281526020810184848401111561071257600080fd5b61071d848285610b01565b509392505050565b60008135905061073481610be4565b92915050565b600082601f83011261074b57600080fd5b813561075b8482602086016106e7565b91505092915050565b60006020828403121561077657600080fd5b600061078484828501610725565b91505092915050565b6000806000606084860312156107a257600080fd5b60006107b086828701610725565b935050602084013567ffffffffffffffff8111156107cd57600080fd5b6107d98682870161073a565b925050604084013567ffffffffffffffff8111156107f657600080fd5b6108028682870161073a565b9150509250925092565b60006108188383610925565b905092915050565b61082981610ac5565b82525050565b61083881610ac5565b82525050565b600061084982610a6f565b6108538185610a92565b93508360208202850161086585610a5f565b8060005b858110156108a15784840389528151610882858261080c565b945061088d83610a85565b925060208a01995050600181019050610869565b50829750879550505050505092915050565b60006108be82610a7a565b6108c88185610aa3565b93506108d8818560208601610b10565b6108e181610bd3565b840191505092915050565b60006108f782610a7a565b6109018185610ab4565b9350610911818560208601610b10565b61091a81610bd3565b840191505092915050565b6000608083016000830151848203600086015261094282826108b3565b9150506020830151848203602086015261095c82826108b3565b91505060408301516109716040860182610820565b506060830151610984606086018261098f565b508091505092915050565b61099881610af7565b82525050565b60006060820190506109b3600083018661082f565b81810360208301526109c581856108ec565b90506109d4604083018461082f565b949350505050565b600060208201905081810360008301526109f6818461083e565b905092915050565b6000604051905081810181811067ffffffffffffffff82111715610a2557610a24610ba4565b5b8060405250919050565b600067ffffffffffffffff821115610a4a57610a49610ba4565b5b601f19601f8301169050602081019050919050565b6000819050602082019050919050565b600081519050919050565b600081519050919050565b6000602082019050919050565b600082825260208201905092915050565b600082825260208201905092915050565b600082825260208201905092915050565b6000610ad082610ad7565b9050919050565b600073ffffffffffffffffffffffffffffffffffffffff82169050919050565b6000819050919050565b82818337600083830152505050565b60005b83811015610b2e578082015181840152602081019050610b13565b83811115610b3d576000848401525b50505050565b60006002820490506001821680610b5b57607f821691505b60208210811415610b6f57610b6e610b75565b5b50919050565b7f4e487b7100000000000000000000000000000000000000000000000000000000600052602260045260246000fd5b7f4e487b7100000000000000000000000000000000000000000000000000000000600052604160045260246000fd5b6000601f19601f8301169050919050565b610bed81610ac5565b8114610bf857600080fd5b5056fea2646970667358221220a22c82ab19412879c7b405bb0ada8ff3ec10518bbdf2433a7d9859690a6a748e64736f6c63430008000033",
  "immutableReferences": {},
  "source": "// SPDX-License-Identifier: MIT\r\npragma solidity ^0.8.0;\r\n\r\ncontract MedicalRecords {\r\n    struct Record {\r\n        string description;\r\n        string ipfsHash; // IPFS hash for storing large files like images\r\n        address doctor;\r\n        uint256 timestamp;\r\n    }\r\n\r\n    mapping(address => Record[]) private records; // Patient's medical records\r\n    mapping(address => mapping(address => bool)) private accessControl; // Patient's consent for doctors\r\n\r\n\r\n    event RecordAdded(address patient, string description, address doctor);\r\n    event AccessGranted(address indexed patient, address indexed doctor);\r\n    event AccessRevoked(address indexed patient, address indexed doctor);\r\n\r\n    // Function to add a new medical record\r\n    function addRecord(address patient, string memory description, string memory ipfsHash) public {\r\n        records[patient].push(Record(description, ipfsHash, msg.sender, block.timestamp));\r\n        emit RecordAdded(patient, description, msg.sender);\r\n    }\r\n\r\n    //Function to get all records of a patient\r\n    function getRecords(address patient) public view returns (Record[] memory) {\r\n        return records[patient];\r\n    }\r\n\r\n      // Function to get all records of a patient\r\n    // function getRecords(address patient) public view returns (Record[] memory) {\r\n    //     require(patient == msg.sender || accessControl[patient][msg.sender], \"Access denied\");\r\n    //     return records[patient];\r\n    // }\r\n\r\n    // Function to grant access to a doctor\r\n    function grantAccess(address doctor) public {\r\n        accessControl[msg.sender][doctor] = true;\r\n        emit AccessGranted(msg.sender, doctor);\r\n    }\r\n\r\n    // Function to revoke access from a doctor\r\n    function revokeAccess(address doctor) public {\r\n        accessControl[msg.sender][doctor] = false;\r\n        emit AccessRevoked(msg.sender, doctor);\r\n    }\r\n}\r\n",
  "sourcePath": "D:\\blockchain\\blockchain-medical-records\\contracts\\MedicalRecords.sol",
  "compiler": {
    "name": "solc",
    "version": "0.8.0+commit.c7dfd78e.Emscripten.clang"
  },
  "schemaVersion": "3.4.16",
  "updatedAt": "2024-12-11T08:37:53.750Z",
  "networkType": "ethereum",
  "devdoc": {
    "kind": "dev",
    "methods": {},
    "version": 1
  },
  "userdoc": {
    "kind": "user",
    "methods": {},
    "version": 1
  }
}