{
  "contractName": "MedicalRecords",
  "abi": [
    {
      "anonymous": false,
      "inputs": [
        {
          "indexed": true,
          "internalType": "address",
          "name": "patient",
          "type": "address"
        },
        {
          "indexed": true,
          "internalType": "address",
          "name": "doctor",
          "type": "address"
        }
      ],
      "name": "AccessGranted",
      "type": "event"
    },
    {
      "anonymous": false,
      "inputs": [
        {
          "indexed": true,
          "internalType": "address",
          "name": "patient",
          "type": "address"
        },
        {
          "indexed": true,
          "internalType": "address",
          "name": "doctor",
          "type": "address"
        }
      ],
      "name": "AccessRevoked",
      "type": "event"
    },
    {
      "anonymous": false,
      "inputs": [
        {
          "indexed": false,
          "internalType": "string",
          "name": "msg",
          "type": "string"
        }
      ],
      "name": "LogMessage",
      "type": "event"
    },
    {
      "anonymous": false,
      "inputs": [
        {
          "indexed": false,
          "internalType": "address",
          "name": "patient",
          "type": "address"
        }
      ],
      "name": "LogValue",
      "type": "event"
    },
    {
      "anonymous": false,
      "inputs": [
        {
          "indexed": true,
          "internalType": "address",
          "name": "patient",
          "type": "address"
        },
        {
          "indexed": false,
          "internalType": "string",
          "name": "description",
          "type": "string"
        },
        {
          "indexed": true,
          "internalType": "address",
          "name": "doctor",
          "type": "address"
        }
      ],
      "name": "RecordAdded",
      "type": "event"
    },
    {
      "inputs": [
        {
          "internalType": "address",
          "name": "patient",
          "type": "address"
        },
        {
          "internalType": "string",
          "name": "description",
          "type": "string"
        },
        {
          "internalType": "string",
          "name": "ipfsHash",
          "type": "string"
        }
      ],
      "name": "addRecord",
      "outputs": [],
      "stateMutability": "nonpayable",
      "type": "function"
    },
    {
      "inputs": [
        {
          "internalType": "address",
          "name": "patient",
          "type": "address"
        }
      ],
      "name": "getRecords",
      "outputs": [
        {
          "components": [
            {
              "internalType": "string",
              "name": "description",
              "type": "string"
            },
            {
              "internalType": "string",
              "name": "ipfsHash",
              "type": "string"
            },
            {
              "internalType": "address",
              "name": "doctor",
              "type": "address"
            },
            {
              "internalType": "uint256",
              "name": "timestamp",
              "type": "uint256"
            }
          ],
          "internalType": "struct MedicalRecords.Record[]",
          "name": "",
          "type": "tuple[]"
        }
      ],
      "stateMutability": "view",
      "type": "function"
    },
    {
      "inputs": [
        {
          "internalType": "address",
          "name": "doctor",
          "type": "address"
        }
      ],
      "name": "grantAccess",
      "outputs": [],
      "stateMutability": "nonpayable",
      "type": "function"
    },
    {
      "inputs": [
        {
          "internalType": "address",
          "name": "doctor",
          "type": "address"
        }
      ],
      "name": "revokeAccess",
      "outputs": [],
      "stateMutability": "nonpayable",
      "type": "function"
    },
    {
      "inputs": [
        {
          "internalType": "address",
          "name": "patient",
          "type": "address"
        },
        {
          "internalType": "address",
          "name": "doctor",
          "type": "address"
        }
      ],
      "name": "hasAccess",
      "outputs": [
        {
          "internalType": "bool",
          "name": "",
          "type": "bool"
        }
      ],
      "stateMutability": "view",
      "type": "function"
    }
  ],
  "bytecode": "0x608060405234801561001057600080fd5b506111a1806100206000396000f3fe608060405234801561001057600080fd5b50600436106100575760003560e01c80630ae5e7391461005c5780631709ef071461007857806385e68531146100a8578063a0076e84146100c4578063d47b41d5146100f4575b600080fd5b61007660048036038101906100719190610ae3565b610110565b005b610092600480360381019061008d9190610b0c565b61026d565b60405161009f9190610ea5565b60405180910390f35b6100c260048036038101906100bd9190610ae3565b610301565b005b6100de60048036038101906100d99190610ae3565b61045f565b6040516100eb9190610e83565b60405180910390f35b61010e60048036038101906101099190610b48565b6107bc565b005b7f96561394bac381230de4649200e8831afcab1f451881bbade9ef209f6dd3048060405161013d90610f02565b60405180910390a17f390d9f7cb271a4f1007b9fbeeae2d987b55811356150cf63a6f21bf1118a67f9816040516101749190610e68565b60405180910390a160018060003373ffffffffffffffffffffffffffffffffffffffff1673ffffffffffffffffffffffffffffffffffffffff16815260200190815260200160002060008373ffffffffffffffffffffffffffffffffffffffff1673ffffffffffffffffffffffffffffffffffffffff16815260200190815260200160002060006101000a81548160ff0219169083151502179055508073ffffffffffffffffffffffffffffffffffffffff163373ffffffffffffffffffffffffffffffffffffffff167f9f520b3bfc56d06f7065d10b4683b3f57ac8895d5026cd176dee95ce1454cb8d60405160405180910390a350565b6000600160008473ffffffffffffffffffffffffffffffffffffffff1673ffffffffffffffffffffffffffffffffffffffff16815260200190815260200160002060008373ffffffffffffffffffffffffffffffffffffffff1673ffffffffffffffffffffffffffffffffffffffff16815260200190815260200160002060009054906101000a900460ff16905092915050565b7f96561394bac381230de4649200e8831afcab1f451881bbade9ef209f6dd3048060405161032e90610f42565b60405180910390a17f390d9f7cb271a4f1007b9fbeeae2d987b55811356150cf63a6f21bf1118a67f9816040516103659190610e68565b60405180910390a16000600160003373ffffffffffffffffffffffffffffffffffffffff1673ffffffffffffffffffffffffffffffffffffffff16815260200190815260200160002060008373ffffffffffffffffffffffffffffffffffffffff1673ffffffffffffffffffffffffffffffffffffffff16815260200190815260200160002060006101000a81548160ff0219169083151502179055508073ffffffffffffffffffffffffffffffffffffffff163373ffffffffffffffffffffffffffffffffffffffff167f825c8be24eb0df19500f63e86c29e7d0d951e73056b889b891d85e40938d9b6e60405160405180910390a350565b60603373ffffffffffffffffffffffffffffffffffffffff168273ffffffffffffffffffffffffffffffffffffffff1614806105215750600160008373ffffffffffffffffffffffffffffffffffffffff1673ffffffffffffffffffffffffffffffffffffffff16815260200190815260200160002060003373ffffffffffffffffffffffffffffffffffffffff1673ffffffffffffffffffffffffffffffffffffffff16815260200190815260200160002060009054906101000a900460ff165b610560576040517f08c379a000000000000000000000000000000000000000000000000000000000815260040161055790610f22565b60405180910390fd5b6000808373ffffffffffffffffffffffffffffffffffffffff1673ffffffffffffffffffffffffffffffffffffffff16815260200190815260200160002060003373ffffffffffffffffffffffffffffffffffffffff1673ffffffffffffffffffffffffffffffffffffffff168152602001908152602001600020805480602002602001604051908101604052809291908181526020016000905b828210156107b1578382906000526020600020906004020160405180608001604052908160008201805461062e906110b3565b80601f016020809104026020016040519081016040528092919081815260200182805461065a906110b3565b80156106a75780601f1061067c576101008083540402835291602001916106a7565b820191906000526020600020905b81548152906001019060200180831161068a57829003601f168201915b505050505081526020016001820180546106c0906110b3565b80601f01602080910402602001604051908101604052809291908181526020018280546106ec906110b3565b80156107395780601f1061070e57610100808354040283529160200191610739565b820191906000526020600020905b81548152906001019060200180831161071c57829003601f168201915b505050505081526020016002820160009054906101000a900473ffffffffffffffffffffffffffffffffffffffff1673ffffffffffffffffffffffffffffffffffffffff1673ffffffffffffffffffffffffffffffffffffffff168152602001600382015481525050815260200190600101906105fb565b505050509050919050565b6000808473ffffffffffffffffffffffffffffffffffffffff1673ffffffffffffffffffffffffffffffffffffffff16815260200190815260200160002060003373ffffffffffffffffffffffffffffffffffffffff1673ffffffffffffffffffffffffffffffffffffffff16815260200190815260200160002060405180608001604052808481526020018381526020013373ffffffffffffffffffffffffffffffffffffffff16815260200142815250908060018154018082558091505060019003906000526020600020906004020160009091909190915060008201518160000190805190602001906108b39291906109c3565b5060208201518160010190805190602001906108d09291906109c3565b5060408201518160020160006101000a81548173ffffffffffffffffffffffffffffffffffffffff021916908373ffffffffffffffffffffffffffffffffffffffff1602179055506060820151816003015550503373ffffffffffffffffffffffffffffffffffffffff168373ffffffffffffffffffffffffffffffffffffffff167f0162e5f82d0f9f6c8f00cc90a44c2fe43acd1f1da0641215282171672daad6fa846040516109819190610ec0565b60405180910390a37f96561394bac381230de4649200e8831afcab1f451881bbade9ef209f6dd304806040516109b690610ee2565b60405180910390a1505050565b8280546109cf906110b3565b90600052602060002090601f0160209004810192826109f15760008555610a38565b82601f10610a0a57805160ff1916838001178555610a38565b82800160010185558215610a38579182015b82811115610a37578251825591602001919060010190610a1c565b5b509050610a459190610a49565b5090565b5b80821115610a62576000816000905550600101610a4a565b5090565b6000610a79610a7484610f93565b610f62565b905082815260208101848484011115610a9157600080fd5b610a9c848285611071565b509392505050565b600081359050610ab381611154565b92915050565b600082601f830112610aca57600080fd5b8135610ada848260208601610a66565b91505092915050565b600060208284031215610af557600080fd5b6000610b0384828501610aa4565b91505092915050565b60008060408385031215610b1f57600080fd5b6000610b2d85828601610aa4565b9250506020610b3e85828601610aa4565b9150509250929050565b600080600060608486031215610b5d57600080fd5b6000610b6b86828701610aa4565b935050602084013567ffffffffffffffff811115610b8857600080fd5b610b9486828701610ab9565b925050604084013567ffffffffffffffff811115610bb157600080fd5b610bbd86828701610ab9565b9150509250925092565b6000610bd38383610def565b905092915050565b610be481611029565b82525050565b610bf381611029565b82525050565b6000610c0482610fd3565b610c0e8185610ff6565b935083602082028501610c2085610fc3565b8060005b85811015610c5c5784840389528151610c3d8582610bc7565b9450610c4883610fe9565b925060208a01995050600181019050610c24565b50829750879550505050505092915050565b610c778161103b565b82525050565b6000610c8882610fde565b610c928185611007565b9350610ca2818560208601611080565b610cab81611143565b840191505092915050565b6000610cc182610fde565b610ccb8185611018565b9350610cdb818560208601611080565b610ce481611143565b840191505092915050565b6000610cfc601783611018565b91507f416464696e67206d65646963616c207265636f726473210000000000000000006000830152602082019050919050565b6000610d3c601783611018565b91507f4772616e742061636365737320746f20646f63746f72210000000000000000006000830152602082019050919050565b6000610d7c600d83611018565b91507f4163636573732064656e696564000000000000000000000000000000000000006000830152602082019050919050565b6000610dbc601883611018565b91507f5265766f6b652061636365737320746f20646f63746f722100000000000000006000830152602082019050919050565b60006080830160008301518482036000860152610e0c8282610c7d565b91505060208301518482036020860152610e268282610c7d565b9150506040830151610e3b6040860182610bdb565b506060830151610e4e6060860182610e59565b508091505092915050565b610e6281611067565b82525050565b6000602082019050610e7d6000830184610bea565b92915050565b60006020820190508181036000830152610e9d8184610bf9565b905092915050565b6000602082019050610eba6000830184610c6e565b92915050565b60006020820190508181036000830152610eda8184610cb6565b905092915050565b60006020820190508181036000830152610efb81610cef565b9050919050565b60006020820190508181036000830152610f1b81610d2f565b9050919050565b60006020820190508181036000830152610f3b81610d6f565b9050919050565b60006020820190508181036000830152610f5b81610daf565b9050919050565b6000604051905081810181811067ffffffffffffffff82111715610f8957610f88611114565b5b8060405250919050565b600067ffffffffffffffff821115610fae57610fad611114565b5b601f19601f8301169050602081019050919050565b6000819050602082019050919050565b600081519050919050565b600081519050919050565b6000602082019050919050565b600082825260208201905092915050565b600082825260208201905092915050565b600082825260208201905092915050565b600061103482611047565b9050919050565b60008115159050919050565b600073ffffffffffffffffffffffffffffffffffffffff82169050919050565b6000819050919050565b82818337600083830152505050565b60005b8381101561109e578082015181840152602081019050611083565b838111156110ad576000848401525b50505050565b600060028204905060018216806110cb57607f821691505b602082108114156110df576110de6110e5565b5b50919050565b7f4e487b7100000000000000000000000000000000000000000000000000000000600052602260045260246000fd5b7f4e487b7100000000000000000000000000000000000000000000000000000000600052604160045260246000fd5b6000601f19601f8301169050919050565b61115d81611029565b811461116857600080fd5b5056fea2646970667358221220d1740ad2a25d6860a5ea9d2199986865b4acacf1476c7e283aac9e17261f2ff564736f6c63430008000033",
  "immutableReferences": {},
  "source": "// SPDX-License-Identifier: MIT\r\npragma solidity ^0.8.0;\r\n\r\ncontract MedicalRecords {\r\n    struct Record {\r\n        string description;\r\n        string ipfsHash; // IPFS hash for storing large files like images\r\n        address doctor;\r\n        uint256 timestamp;\r\n    }\r\n\r\n    // mapping(address => Record[]) private records; // Patient's medical records\r\n    // mapping(address => mapping(address => bool)) private accessControl; // Patient's consent for doctors\r\n\r\n    // Mapping: Patient -> (Doctor -> Records)\r\n    mapping(address => mapping(address => Record[])) private records;\r\n    // Access control: Patient -> (Doctor -> Access Granted)\r\n    mapping(address => mapping(address => bool)) private accessControl;\r\n\r\n    event RecordAdded(address indexed patient, string description, address indexed doctor);\r\n    event AccessGranted(address indexed patient, address indexed doctor);\r\n    event AccessRevoked(address indexed patient, address indexed doctor);\r\n\r\n    event LogMessage(string msg);\r\n    event LogValue(address patient);\r\n\r\n\r\n\r\n    // Function to add a new medical record\r\n    function addRecord(address patient, string memory description, string memory ipfsHash) public {\r\n        records[patient][msg.sender].push(Record(description, ipfsHash, msg.sender, block.timestamp));\r\n        emit RecordAdded(patient, description, msg.sender);\r\n        emit LogMessage(\"Adding medical records!\");\r\n       // emit LogValue(patient);\r\n    }\r\n\r\n    //Function to get all records of a patient\r\n    // function getRecords(address patient) public view returns (Record[] memory) {\r\n    //     return records[patient];\r\n    // }\r\n\r\n\r\n      // Function to get all records of a patient\r\n    function getRecords(address patient) public view returns (Record[] memory) {\r\n        require(patient == msg.sender || accessControl[patient][msg.sender], \"Access denied\");\r\n        return records[patient][msg.sender];\r\n    }\r\n\r\n    // Function to grant access to a doctor\r\n    function grantAccess(address doctor) public {\r\n        emit LogMessage(\"Grant access to doctor!\");\r\n        emit LogValue(doctor);\r\n    \r\n        accessControl[msg.sender][doctor] = true;\r\n        emit AccessGranted(msg.sender, doctor);\r\n    }\r\n\r\n    // Function to revoke access from a doctor\r\n    function revokeAccess(address doctor) public {\r\n        emit LogMessage(\"Revoke access to doctor!\");\r\n        emit LogValue(doctor);\r\n\r\n        accessControl[msg.sender][doctor] = false;\r\n        emit AccessRevoked(msg.sender, doctor);\r\n    }\r\n\r\n    // Function to check if a doctor has access to a patient's records\r\n    function hasAccess(address patient, address doctor) public view returns (bool) {\r\n        return accessControl[patient][doctor];\r\n    }\r\n}\r\n",
  "sourcePath": "D:\\blockchain\\blockchain-medical-records\\contracts\\MedicalRecords.sol",
  "compiler": {
    "name": "solc",
    "version": "0.8.0+commit.c7dfd78e.Emscripten.clang"
  },
  "schemaVersion": "3.4.16",
  "updatedAt": "2024-12-26T06:23:48.714Z",
  "devdoc": {
    "kind": "dev",
    "methods": {},
    "version": 1
  },
  "userdoc": {
    "kind": "user",
    "methods": {},
    "version": 1
  }
}